{
  "address": "0x42135d5dF983C542705249fB1b0ea7167db15504",
  "abi": [
    {
      "anonymous": false,
      "inputs": [
        {
          "indexed": false,
          "internalType": "address",
          "name": "tokenRecovered",
          "type": "address"
        },
        {
          "indexed": false,
          "internalType": "uint256",
          "name": "amount",
          "type": "uint256"
        }
      ],
      "name": "AdminTokenRecovery",
      "type": "event"
    },
    {
      "anonymous": false,
      "inputs": [
        {
          "indexed": true,
          "internalType": "address",
          "name": "user",
          "type": "address"
        },
        {
          "indexed": false,
          "internalType": "uint256",
          "name": "amount",
          "type": "uint256"
        }
      ],
      "name": "Deposit",
      "type": "event"
    },
    {
      "anonymous": false,
      "inputs": [
        {
          "indexed": true,
          "internalType": "address",
          "name": "user",
          "type": "address"
        },
        {
          "indexed": false,
          "internalType": "uint256",
          "name": "amount",
          "type": "uint256"
        }
      ],
      "name": "EmergencyWithdraw",
      "type": "event"
    },
    {
      "anonymous": false,
      "inputs": [
        {
          "indexed": false,
          "internalType": "uint256",
          "name": "poolLimitPerUser",
          "type": "uint256"
        }
      ],
      "name": "NewPoolLimit",
      "type": "event"
    },
    {
      "anonymous": false,
      "inputs": [
        {
          "indexed": false,
          "internalType": "uint256",
          "name": "rewardPerBlock",
          "type": "uint256"
        }
      ],
      "name": "NewRewardPerBlock",
      "type": "event"
    },
    {
      "anonymous": false,
      "inputs": [
        {
          "indexed": false,
          "internalType": "uint256",
          "name": "startBlock",
          "type": "uint256"
        },
        {
          "indexed": false,
          "internalType": "uint256",
          "name": "endBlock",
          "type": "uint256"
        }
      ],
      "name": "NewStartAndEndBlocks",
      "type": "event"
    },
    {
      "anonymous": false,
      "inputs": [
        {
          "indexed": true,
          "internalType": "address",
          "name": "previousOwner",
          "type": "address"
        },
        {
          "indexed": true,
          "internalType": "address",
          "name": "newOwner",
          "type": "address"
        }
      ],
      "name": "OwnershipTransferred",
      "type": "event"
    },
    {
      "anonymous": false,
      "inputs": [
        {
          "indexed": false,
          "internalType": "uint256",
          "name": "blockNumber",
          "type": "uint256"
        }
      ],
      "name": "RewardsStop",
      "type": "event"
    },
    {
      "anonymous": false,
      "inputs": [
        {
          "indexed": true,
          "internalType": "address",
          "name": "user",
          "type": "address"
        },
        {
          "indexed": false,
          "internalType": "uint256",
          "name": "amount",
          "type": "uint256"
        }
      ],
      "name": "Withdraw",
      "type": "event"
    },
    {
      "inputs": [],
      "name": "BASIS_POINT",
      "outputs": [
        {
          "internalType": "uint256",
          "name": "",
          "type": "uint256"
        }
      ],
      "stateMutability": "view",
      "type": "function"
    },
    {
      "inputs": [],
      "name": "PRECISION_FACTOR",
      "outputs": [
        {
          "internalType": "uint256",
          "name": "",
          "type": "uint256"
        }
      ],
      "stateMutability": "view",
      "type": "function"
    },
    {
      "inputs": [],
      "name": "accTokenPerShare",
      "outputs": [
        {
          "internalType": "uint256",
          "name": "",
          "type": "uint256"
        }
      ],
      "stateMutability": "view",
      "type": "function"
    },
    {
      "inputs": [],
      "name": "bonusEndBlock",
      "outputs": [
        {
          "internalType": "uint256",
          "name": "",
          "type": "uint256"
        }
      ],
      "stateMutability": "view",
      "type": "function"
    },
    {
      "inputs": [
        {
          "internalType": "uint256",
          "name": "_amount",
          "type": "uint256"
        }
      ],
      "name": "deposit",
      "outputs": [],
      "stateMutability": "nonpayable",
      "type": "function"
    },
    {
      "inputs": [],
      "name": "depositFeeRate",
      "outputs": [
        {
          "internalType": "uint256",
          "name": "",
          "type": "uint256"
        }
      ],
      "stateMutability": "view",
      "type": "function"
    },
    {
      "inputs": [],
      "name": "emergencyWithdraw",
      "outputs": [],
      "stateMutability": "nonpayable",
      "type": "function"
    },
    {
      "inputs": [],
      "name": "getStakedTokenSupply",
      "outputs": [
        {
          "internalType": "uint256",
          "name": "",
          "type": "uint256"
        }
      ],
      "stateMutability": "view",
      "type": "function"
    },
    {
      "inputs": [],
      "name": "hasUserLimit",
      "outputs": [
        {
          "internalType": "bool",
          "name": "",
          "type": "bool"
        }
      ],
      "stateMutability": "view",
      "type": "function"
    },
    {
      "inputs": [
        {
          "internalType": "contract IBEP20",
          "name": "_stakedToken",
          "type": "address"
        },
        {
          "internalType": "contract IBEP20",
          "name": "_rewardToken",
          "type": "address"
        },
        {
          "internalType": "uint256",
          "name": "_rewardPerBlock",
          "type": "uint256"
        },
        {
          "internalType": "uint256",
          "name": "_startBlock",
          "type": "uint256"
        },
        {
          "internalType": "uint256",
          "name": "_bonusEndBlock",
          "type": "uint256"
        },
        {
          "internalType": "uint256",
          "name": "_poolLimitPerUser",
          "type": "uint256"
        },
        {
          "internalType": "address",
          "name": "_admin",
          "type": "address"
        }
      ],
      "name": "initialize",
      "outputs": [],
      "stateMutability": "nonpayable",
      "type": "function"
    },
    {
      "inputs": [],
      "name": "lastRewardBlock",
      "outputs": [
        {
          "internalType": "uint256",
          "name": "",
          "type": "uint256"
        }
      ],
      "stateMutability": "view",
      "type": "function"
    },
    {
      "inputs": [],
      "name": "owner",
      "outputs": [
        {
          "internalType": "address",
          "name": "",
          "type": "address"
        }
      ],
      "stateMutability": "view",
      "type": "function"
    },
    {
      "inputs": [
        {
          "internalType": "address",
          "name": "_user",
          "type": "address"
        }
      ],
      "name": "pendingReward",
      "outputs": [
        {
          "internalType": "uint256",
          "name": "",
          "type": "uint256"
        }
      ],
      "stateMutability": "view",
      "type": "function"
    },
    {
      "inputs": [],
      "name": "poolLimitPerUser",
      "outputs": [
        {
          "internalType": "uint256",
          "name": "",
          "type": "uint256"
        }
      ],
      "stateMutability": "view",
      "type": "function"
    },
    {
      "inputs": [
        {
          "internalType": "address",
          "name": "_tokenAddress",
          "type": "address"
        },
        {
          "internalType": "uint256",
          "name": "_tokenAmount",
          "type": "uint256"
        }
      ],
      "name": "recoverWrongTokens",
      "outputs": [],
      "stateMutability": "nonpayable",
      "type": "function"
    },
    {
      "inputs": [],
      "name": "renounceOwnership",
      "outputs": [],
      "stateMutability": "nonpayable",
      "type": "function"
    },
    {
      "inputs": [],
      "name": "rewardPerBlock",
      "outputs": [
        {
          "internalType": "uint256",
          "name": "",
          "type": "uint256"
        }
      ],
      "stateMutability": "view",
      "type": "function"
    },
    {
      "inputs": [],
      "name": "rewardToken",
      "outputs": [
        {
          "internalType": "contract IBEP20",
          "name": "",
          "type": "address"
        }
      ],
      "stateMutability": "view",
      "type": "function"
    },
    {
      "inputs": [],
      "name": "stakedToken",
      "outputs": [
        {
          "internalType": "contract IBEP20",
          "name": "",
          "type": "address"
        }
      ],
      "stateMutability": "view",
      "type": "function"
    },
    {
      "inputs": [],
      "name": "stakedTokenSupply",
      "outputs": [
        {
          "internalType": "uint256",
          "name": "",
          "type": "uint256"
        }
      ],
      "stateMutability": "view",
      "type": "function"
    },
    {
      "inputs": [],
      "name": "startBlock",
      "outputs": [
        {
          "internalType": "uint256",
          "name": "",
          "type": "uint256"
        }
      ],
      "stateMutability": "view",
      "type": "function"
    },
    {
      "inputs": [
        {
          "internalType": "address",
          "name": "newOwner",
          "type": "address"
        }
      ],
      "name": "transferOwnership",
      "outputs": [],
      "stateMutability": "nonpayable",
      "type": "function"
    },
    {
      "inputs": [
        {
          "internalType": "uint256",
          "name": "_depositFeeRate",
          "type": "uint256"
        }
      ],
      "name": "updateDepositFee",
      "outputs": [],
      "stateMutability": "nonpayable",
      "type": "function"
    },
    {
      "inputs": [
        {
          "internalType": "bool",
          "name": "_hasUserLimit",
          "type": "bool"
        },
        {
          "internalType": "uint256",
          "name": "_poolLimitPerUser",
          "type": "uint256"
        }
      ],
      "name": "updatePoolLimitPerUser",
      "outputs": [],
      "stateMutability": "nonpayable",
      "type": "function"
    },
    {
      "inputs": [
        {
          "internalType": "uint256",
          "name": "_startBlock",
          "type": "uint256"
        },
        {
          "internalType": "uint256",
          "name": "_bonusEndBlock",
          "type": "uint256"
        }
      ],
      "name": "updateStartAndEndBlocks",
      "outputs": [],
      "stateMutability": "nonpayable",
      "type": "function"
    },
    {
      "inputs": [
        {
          "internalType": "address",
          "name": "",
          "type": "address"
        }
      ],
      "name": "userInfo",
      "outputs": [
        {
          "internalType": "uint256",
          "name": "amount",
          "type": "uint256"
        },
        {
          "internalType": "uint256",
          "name": "rewardDebt",
          "type": "uint256"
        }
      ],
      "stateMutability": "view",
      "type": "function"
    },
    {
      "inputs": [
        {
          "internalType": "uint256",
          "name": "_amount",
          "type": "uint256"
        }
      ],
      "name": "withdraw",
      "outputs": [],
      "stateMutability": "nonpayable",
      "type": "function"
    }
  ],
  "transactionHash": "0x683b801958f0d9183390b968f9c1d092f09f51f141410b213a52d1663c6ddb2b",
  "args": [],
  "numDeployments": 1,
  "solcInputHash": "938de25bff54e312d54aa6e0451db46a",
  "bytecode": "0x608060405234801561001057600080fd5b50611d68806100206000396000f3fe608060405234801561001057600080fd5b50600436106101a95760003560e01c8063921979af116100f9578063cc7a262e11610097578063f2fde38b11610071578063f2fde38b146103c4578063f40f0f52146103ea578063f754d4a414610410578063f7c618c114610418576101a9565b8063cc7a262e146103ac578063ccd34cd5146103b4578063db2e21bc146103bc576101a9565b8063a0b40905116100d3578063a0b409051461035a578063a9f8d1811461037f578063ada5f64214610387578063b6b55f251461038f576101a9565b8063921979af1461031357806392e8990e1461031b5780639513997f14610337576101a9565b806366fe9f8a11610166578063852cb9b811610140578063852cb9b8146102d75780638ae39cac146102df5780638da5cb5b146102e75780638f6629151461030b576101a9565b806366fe9f8a14610277578063715018a61461027f57806383a5041c14610287576101a9565b8063017def57146101ae5780631959a002146101cd5780631aed65531461020c5780632e1a7d4d146102265780633f138d4b1461024357806348cd4cb11461026f575b600080fd5b6101cb600480360360208110156101c457600080fd5b5035610420565b005b6101f3600480360360208110156101e357600080fd5b50356001600160a01b0316610487565b6040805192835260208301919091528051918290030190f35b6102146104a0565b60408051918252519081900360200190f35b6101cb6004803603602081101561023c57600080fd5b50356104a6565b6101cb6004803603604081101561025957600080fd5b506001600160a01b03813516906020013561065b565b6102146107d1565b6102146107d7565b6101cb6107dd565b6101cb600480360360e081101561029d57600080fd5b506001600160a01b038135811691602081013582169160408201359160608101359160808201359160a08101359160c09091013516610889565b610214610a7f565b610214610a85565b6102ef610a8b565b604080516001600160a01b039092168252519081900360200190f35b610214610a9a565b610214610aa0565b610323610aa6565b604080519115158252519081900360200190f35b6101cb6004803603604081101561034d57600080fd5b5080359060200135610aaf565b6101cb6004803603604081101561037057600080fd5b50803515159060200135610c24565b610214610d7e565b610214610d84565b6101cb600480360360208110156103a557600080fd5b5035610d8a565b6102ef610fab565b610214610fba565b6101cb610fc0565b6101cb600480360360208110156103da57600080fd5b50356001600160a01b03166110a7565b6102146004803603602081101561040057600080fd5b50356001600160a01b03166111aa565b61021461128d565b6102ef611293565b6104286112a2565b6001600160a01b0316610439610a8b565b6001600160a01b031614610482576040805162461bcd60e51b81526020600482018190526024820152600080516020611d13833981519152604482015290519081900360640190fd5b60a155565b60a2602052600090815260409020805460019091015482565b60995481565b600260655414156104fe576040805162461bcd60e51b815260206004820152601f60248201527f5265656e7472616e637947756172643a207265656e7472616e742063616c6c00604482015290519081900360640190fd5b600260655533600090815260a2602052604090208054821115610568576040805162461bcd60e51b815260206004820152601b60248201527f416d6f756e7420746f20776974686472617720746f6f20686967680000000000604482015290519081900360640190fd5b6105706112a6565b60006105a5826001015461059f609e54610599609854876000015461131790919063ffffffff16565b90611379565b906113e0565b905082156105e25781546105b990846113e0565b825560a3546105c890846113e0565b60a35560a0546105e2906001600160a01b0316338561143d565b80156105ff57609f546105ff906001600160a01b0316338361143d565b609e54609854835461061692916105999190611317565b600183015560408051848152905133917f884edad9ce6fa2440d8a54cc123490eb96d2768479d49ff9c7366125a9424364919081900360200190a25050600160655550565b6106636112a2565b6001600160a01b0316610674610a8b565b6001600160a01b0316146106bd576040805162461bcd60e51b81526020600482018190526024820152600080516020611d13833981519152604482015290519081900360640190fd5b60a0546001600160a01b0383811691161415610719576040805162461bcd60e51b815260206004820152601660248201527521b0b73737ba1031329039ba30b5b2b2103a37b5b2b760511b604482015290519081900360640190fd5b609f546001600160a01b0383811691161415610775576040805162461bcd60e51b815260206004820152601660248201527521b0b73737ba103132903932bbb0b932103a37b5b2b760511b604482015290519081900360640190fd5b6107896001600160a01b038316338361143d565b604080516001600160a01b03841681526020810183905281517f74545154aac348a3eac92596bd1971957ca94795f4e954ec5f613b55fab78129929181900390910190a15050565b609a5481565b609c5481565b6107e56112a2565b6001600160a01b03166107f6610a8b565b6001600160a01b03161461083f576040805162461bcd60e51b81526020600482018190526024820152600080516020611d13833981519152604482015290519081900360640190fd5b6033546040516000916001600160a01b0316907f8be0079c531659141344cd1fd0a4f28419497f9722a3daafe3b4186f6b6457e0908390a3603380546001600160a01b0319169055565b600054610100900460ff16806108a257506108a2611494565b806108b0575060005460ff16155b6108eb5760405162461bcd60e51b815260040180806020018281038252602e815260200180611c94602e913960400191505060405180910390fd5b600054610100900460ff16158015610916576000805460ff1961ff0019909116610100171660011790555b61091e6114a5565b610926611557565b60a080546001600160a01b03808b166001600160a01b031992831617909255609f8054928a1692909116919091179055609d869055609a8590556099849055821561097e576097805460ff19166001179055609c8390555b609f546040805163313ce56760e01b815290516000926001600160a01b03169163313ce567916004808301926020929190829003018186803b1580156109c357600080fd5b505afa1580156109d7573d6000803e3d6000fd5b505050506040513d60208110156109ed57600080fd5b505160ff169050601e8110610a42576040805162461bcd60e51b815260206004820152601660248201527504d75737420626520696e666572696f7220746f2033360541b604482015290519081900360640190fd5b610a4d601e826113e0565b600a0a609e55609a54609b55610a62836110a7565b508015610a75576000805461ff00191690555b5050505050505050565b60a15481565b609d5481565b6033546001600160a01b031690565b60985481565b60a35481565b60975460ff1681565b610ab76112a2565b6001600160a01b0316610ac8610a8b565b6001600160a01b031614610b11576040805162461bcd60e51b81526020600482018190526024820152600080516020611d13833981519152604482015290519081900360640190fd5b609a544310610b5a576040805162461bcd60e51b815260206004820152601060248201526f141bdbdb081a185cc81cdd185c9d195960821b604482015290519081900360640190fd5b808210610b985760405162461bcd60e51b815260040180806020018281038252602e815260200180611c40602e913960400191505060405180910390fd5b814310610bd65760405162461bcd60e51b8152600401808060200182810382526030815260200180611cc26030913960400191505060405180910390fd5b609a8290556099819055609b829055604080518381526020810183905281517f7cd0ab87d19036f3dfadadb232c78aa4879dda3f0c994a9d637532410ee2ce06929181900390910190a15050565b610c2c6112a2565b6001600160a01b0316610c3d610a8b565b6001600160a01b031614610c86576040805162461bcd60e51b81526020600482018190526024820152600080516020611d13833981519152604482015290519081900360640190fd5b60975460ff16610ccb576040805162461bcd60e51b815260206004820152600b60248201526a135d5cdd081899481cd95d60aa1b604482015290519081900360640190fd5b8115610d3157609c548111610d27576040805162461bcd60e51b815260206004820152601860248201527f4e6577206c696d6974206d757374206265206869676865720000000000000000604482015290519081900360640190fd5b609c819055610d45565b6097805460ff19168315151790556000609c555b609c5460408051918252517f241f67ee5f41b7a5cabf911367329be7215900f602ebfc47f89dce2a6bcd847c9181900360200190a15050565b609b5481565b6103e881565b60026065541415610de2576040805162461bcd60e51b815260206004820152601f60248201527f5265656e7472616e637947756172643a207265656e7472616e742063616c6c00604482015290519081900360640190fd5b600260655533600090815260a26020526040902060975460ff1615610e6457609c548154610e119084906115ec565b1115610e64576040805162461bcd60e51b815260206004820152601760248201527f5573657220616d6f756e742061626f7665206c696d6974000000000000000000604482015290519081900360640190fd5b610e6c6112a6565b805415610ebd576000610e9c826001015461059f609e54610599609854876000015461131790919063ffffffff16565b90508015610ebb57609f54610ebb906001600160a01b0316338361143d565b505b8115610f50576000610ee06103e861059960a1548661131790919063ffffffff16565b90508015610f0657610f06610ef3610a8b565b60a0546001600160a01b0316908361143d565b610f1b610f1384836113e0565b8354906115ec565b8255610f33610f2a84836113e0565b60a354906115ec565b60a35560a054610f4e906001600160a01b0316333086611646565b505b609e546098548254610f6792916105999190611317565b600182015560408051838152905133917fe1fffcc4923d04b559f4d29a8bfc6cda04eb5b0d3c460751c2402c5c5cc9109c919081900360200190a250506001606555565b60a0546001600160a01b031681565b609e5481565b60026065541415611018576040805162461bcd60e51b815260206004820152601f60248201527f5265656e7472616e637947756172643a207265656e7472616e742063616c6c00604482015290519081900360640190fd5b600260655533600090815260a260205260408120805482825560018201929092559080156110675760a35461104d90826113e0565b60a35560a054611067906001600160a01b0316338361143d565b8154604080519182525133917f5fafa99d0643513820be26656b45130b01e1c03062e1266bf36f88cbd3bd9695919081900360200190a250506001606555565b6110af6112a2565b6001600160a01b03166110c0610a8b565b6001600160a01b031614611109576040805162461bcd60e51b81526020600482018190526024820152600080516020611d13833981519152604482015290519081900360640190fd5b6001600160a01b03811661114e5760405162461bcd60e51b8152600401808060200182810382526026815260200180611c1a6026913960400191505060405180910390fd5b6033546040516001600160a01b038084169216907f8be0079c531659141344cd1fd0a4f28419497f9722a3daafe3b4186f6b6457e090600090a3603380546001600160a01b0319166001600160a01b0392909216919091179055565b6001600160a01b038116600090815260a260205260408120609b54431180156111d4575060a35415155b1561125d5760006111e7609b54436116a6565b90506000611200609d548361131790919063ffffffff16565b9050600061122b61122260a354610599609e548661131790919063ffffffff16565b609854906115ec565b9050611252846001015461059f609e5461059985896000015461131790919063ffffffff16565b945050505050611288565b611284816001015461059f609e54610599609854866000015461131790919063ffffffff16565b9150505b919050565b60a35490565b609f546001600160a01b031681565b3390565b609b5443116112b457611315565b60a3546112c45743609b55611315565b60006112d2609b54436116a6565b905060006112eb609d548361131790919063ffffffff16565b905061130b61122260a354610599609e548561131790919063ffffffff16565b609855505043609b555b565b60008261132657506000611373565b8282028284828161133357fe5b04146113705760405162461bcd60e51b8152600401808060200182810382526021815260200180611cf26021913960400191505060405180910390fd5b90505b92915050565b60008082116113cf576040805162461bcd60e51b815260206004820152601a60248201527f536166654d6174683a206469766973696f6e206279207a65726f000000000000604482015290519081900360640190fd5b8183816113d857fe5b049392505050565b600082821115611437576040805162461bcd60e51b815260206004820152601e60248201527f536166654d6174683a207375627472616374696f6e206f766572666c6f770000604482015290519081900360640190fd5b50900390565b604080516001600160a01b038416602482015260448082018490528251808303909101815260649091019091526020810180516001600160e01b031663a9059cbb60e01b17905261148f9084906116e0565b505050565b600061149f30611791565b15905090565b600054610100900460ff16806114be57506114be611494565b806114cc575060005460ff16155b6115075760405162461bcd60e51b815260040180806020018281038252602e815260200180611c94602e913960400191505060405180910390fd5b600054610100900460ff16158015611532576000805460ff1961ff0019909116610100171660011790555b61153a611797565b611542611837565b8015611554576000805461ff00191690555b50565b600054610100900460ff16806115705750611570611494565b8061157e575060005460ff16155b6115b95760405162461bcd60e51b815260040180806020018281038252602e815260200180611c94602e913960400191505060405180910390fd5b600054610100900460ff161580156115e4576000805460ff1961ff0019909116610100171660011790555b611542611930565b600082820183811015611370576040805162461bcd60e51b815260206004820152601b60248201527f536166654d6174683a206164646974696f6e206f766572666c6f770000000000604482015290519081900360640190fd5b604080516001600160a01b0380861660248301528416604482015260648082018490528251808303909101815260849091019091526020810180516001600160e01b03166323b872dd60e01b1790526116a09085906116e0565b50505050565b600060995482116116c2576116bb82846113e0565b9050611373565b60995483106116d357506000611373565b6099546116bb90846113e0565b6060611735826040518060400160405280602081526020017f5361666542455032303a206c6f772d6c6576656c2063616c6c206661696c6564815250856001600160a01b03166119d69092919063ffffffff16565b80519091501561148f5780806020019051602081101561175457600080fd5b505161148f5760405162461bcd60e51b815260040180806020018281038252602a815260200180611bf0602a913960400191505060405180910390fd5b3b151590565b600054610100900460ff16806117b057506117b0611494565b806117be575060005460ff16155b6117f95760405162461bcd60e51b815260040180806020018281038252602e815260200180611c94602e913960400191505060405180910390fd5b600054610100900460ff16158015611542576000805460ff1961ff0019909116610100171660011790558015611554576000805461ff001916905550565b600054610100900460ff16806118505750611850611494565b8061185e575060005460ff16155b6118995760405162461bcd60e51b815260040180806020018281038252602e815260200180611c94602e913960400191505060405180910390fd5b600054610100900460ff161580156118c4576000805460ff1961ff0019909116610100171660011790555b60006118ce6112a2565b603380546001600160a01b0319166001600160a01b038316908117909155604051919250906000907f8be0079c531659141344cd1fd0a4f28419497f9722a3daafe3b4186f6b6457e0908290a3508015611554576000805461ff001916905550565b600054610100900460ff16806119495750611949611494565b80611957575060005460ff16155b6119925760405162461bcd60e51b815260040180806020018281038252602e815260200180611c94602e913960400191505060405180910390fd5b600054610100900460ff161580156119bd576000805460ff1961ff0019909116610100171660011790555b60016065558015611554576000805461ff001916905550565b60606119e584846000856119ef565b90505b9392505050565b606082471015611a305760405162461bcd60e51b8152600401808060200182810382526026815260200180611c6e6026913960400191505060405180910390fd5b611a3985611791565b611a8a576040805162461bcd60e51b815260206004820152601d60248201527f416464726573733a2063616c6c20746f206e6f6e2d636f6e7472616374000000604482015290519081900360640190fd5b60006060866001600160a01b031685876040518082805190602001908083835b60208310611ac95780518252601f199092019160209182019101611aaa565b6001836020036101000a03801982511681845116808217855250505050505090500191505060006040518083038185875af1925050503d8060008114611b2b576040519150601f19603f3d011682016040523d82523d6000602084013e611b30565b606091505b5091509150611b40828286611b4b565b979650505050505050565b60608315611b5a5750816119e8565b825115611b6a5782518084602001fd5b8160405162461bcd60e51b81526004018080602001828103825283818151815260200191508051906020019080838360005b83811015611bb4578181015183820152602001611b9c565b50505050905090810190601f168015611be15780820380516001836020036101000a031916815260200191505b509250505060405180910390fdfe5361666542455032303a204245503230206f7065726174696f6e20646964206e6f7420737563636565644f776e61626c653a206e6577206f776e657220697320746865207a65726f20616464726573734e6577207374617274426c6f636b206d757374206265206c6f776572207468616e206e657720656e64426c6f636b416464726573733a20696e73756666696369656e742062616c616e636520666f722063616c6c496e697469616c697a61626c653a20636f6e747261637420697320616c726561647920696e697469616c697a65644e6577207374617274426c6f636b206d75737420626520686967686572207468616e2063757272656e7420626c6f636b536166654d6174683a206d756c7469706c69636174696f6e206f766572666c6f774f776e61626c653a2063616c6c6572206973206e6f7420746865206f776e6572a264697066735822122098b093aec882d40b4fd88bda2c95906700fd8a6964b2c9bbe9716ae7ed4990ba64736f6c634300060c0033",
  "devdoc": {
    "kind": "dev",
    "methods": {
      "owner()": {
        "details": "Returns the address of the current owner."
      },
      "recoverWrongTokens(address,uint256)": {
        "details": "This function is only callable by admin.",
        "params": {
          "_tokenAddress": ": the address of the token to withdraw",
          "_tokenAmount": ": the number of tokens to withdraw"
        }
      },
      "renounceOwnership()": {
        "details": "Leaves the contract without owner. It will not be possible to call `onlyOwner` functions anymore. Can only be called by the current owner. NOTE: Renouncing ownership will leave the contract without an owner, thereby removing any functionality that is only available to the owner."
      },
      "transferOwnership(address)": {
        "details": "Transfers ownership of the contract to a new account (`newOwner`). Can only be called by the current owner."
      },
      "updateStartAndEndBlocks(uint256,uint256)": {
        "details": "This function is only callable by owner.",
        "params": {
          "_bonusEndBlock": ": the new end block",
          "_startBlock": ": the new start block"
        }
      }
    },
    "version": 1
  },
  "userdoc": {
    "kind": "user",
    "methods": {
      "recoverWrongTokens(address,uint256)": {
        "notice": "It allows the admin to recover wrong tokens sent to the contract"
      },
      "updateStartAndEndBlocks(uint256,uint256)": {
        "notice": "It allows the admin to update start and end blocks"
      }
    },
    "version": 1
  },
  "storageLayout": {
    "storage": [
      {
        "astId": 492,
        "contract": "contracts/BuniPool.sol:BuniPool",
        "label": "_initialized",
        "offset": 0,
        "slot": "0",
        "type": "t_bool"
      },
      {
        "astId": 495,
        "contract": "contracts/BuniPool.sol:BuniPool",
        "label": "_initializing",
        "offset": 1,
        "slot": "0",
        "type": "t_bool"
      },
      {
        "astId": 839,
        "contract": "contracts/BuniPool.sol:BuniPool",
        "label": "__gap",
        "offset": 0,
        "slot": "1",
        "type": "t_array(t_uint256)50_storage"
      },
      {
        "astId": 10,
        "contract": "contracts/BuniPool.sol:BuniPool",
        "label": "_owner",
        "offset": 0,
        "slot": "51",
        "type": "t_address"
      },
      {
        "astId": 129,
        "contract": "contracts/BuniPool.sol:BuniPool",
        "label": "__gap",
        "offset": 0,
        "slot": "52",
        "type": "t_array(t_uint256)49_storage"
      },
      {
        "astId": 854,
        "contract": "contracts/BuniPool.sol:BuniPool",
        "label": "_status",
        "offset": 0,
        "slot": "101",
        "type": "t_uint256"
      },
      {
        "astId": 897,
        "contract": "contracts/BuniPool.sol:BuniPool",
        "label": "__gap",
        "offset": 0,
        "slot": "102",
        "type": "t_array(t_uint256)49_storage"
      },
      {
        "astId": 921,
        "contract": "contracts/BuniPool.sol:BuniPool",
        "label": "hasUserLimit",
        "offset": 0,
        "slot": "151",
        "type": "t_bool"
      },
      {
        "astId": 923,
        "contract": "contracts/BuniPool.sol:BuniPool",
        "label": "accTokenPerShare",
        "offset": 0,
        "slot": "152",
        "type": "t_uint256"
      },
      {
        "astId": 925,
        "contract": "contracts/BuniPool.sol:BuniPool",
        "label": "bonusEndBlock",
        "offset": 0,
        "slot": "153",
        "type": "t_uint256"
      },
      {
        "astId": 927,
        "contract": "contracts/BuniPool.sol:BuniPool",
        "label": "startBlock",
        "offset": 0,
        "slot": "154",
        "type": "t_uint256"
      },
      {
        "astId": 929,
        "contract": "contracts/BuniPool.sol:BuniPool",
        "label": "lastRewardBlock",
        "offset": 0,
        "slot": "155",
        "type": "t_uint256"
      },
      {
        "astId": 931,
        "contract": "contracts/BuniPool.sol:BuniPool",
        "label": "poolLimitPerUser",
        "offset": 0,
        "slot": "156",
        "type": "t_uint256"
      },
      {
        "astId": 933,
        "contract": "contracts/BuniPool.sol:BuniPool",
        "label": "rewardPerBlock",
        "offset": 0,
        "slot": "157",
        "type": "t_uint256"
      },
      {
        "astId": 935,
        "contract": "contracts/BuniPool.sol:BuniPool",
        "label": "PRECISION_FACTOR",
        "offset": 0,
        "slot": "158",
        "type": "t_uint256"
      },
      {
        "astId": 937,
        "contract": "contracts/BuniPool.sol:BuniPool",
        "label": "rewardToken",
        "offset": 0,
        "slot": "159",
        "type": "t_contract(IBEP20)1849"
      },
      {
        "astId": 939,
        "contract": "contracts/BuniPool.sol:BuniPool",
        "label": "stakedToken",
        "offset": 0,
        "slot": "160",
        "type": "t_contract(IBEP20)1849"
      },
      {
        "astId": 941,
        "contract": "contracts/BuniPool.sol:BuniPool",
        "label": "depositFeeRate",
        "offset": 0,
        "slot": "161",
        "type": "t_uint256"
      },
      {
        "astId": 948,
        "contract": "contracts/BuniPool.sol:BuniPool",
        "label": "userInfo",
        "offset": 0,
        "slot": "162",
        "type": "t_mapping(t_address,t_struct(UserInfo)953_storage)"
      },
      {
        "astId": 955,
        "contract": "contracts/BuniPool.sol:BuniPool",
        "label": "stakedTokenSupply",
        "offset": 0,
        "slot": "163",
        "type": "t_uint256"
      }
    ],
    "types": {
      "t_address": {
        "encoding": "inplace",
        "label": "address",
        "numberOfBytes": "20"
      },
      "t_array(t_uint256)49_storage": {
        "base": "t_uint256",
        "encoding": "inplace",
        "label": "uint256[49]",
        "numberOfBytes": "1568"
      },
      "t_array(t_uint256)50_storage": {
        "base": "t_uint256",
        "encoding": "inplace",
        "label": "uint256[50]",
        "numberOfBytes": "1600"
      },
      "t_bool": {
        "encoding": "inplace",
        "label": "bool",
        "numberOfBytes": "1"
      },
      "t_contract(IBEP20)1849": {
        "encoding": "inplace",
        "label": "contract IBEP20",
        "numberOfBytes": "20"
      },
      "t_mapping(t_address,t_struct(UserInfo)953_storage)": {
        "encoding": "mapping",
        "key": "t_address",
        "label": "mapping(address => struct BuniPool.UserInfo)",
        "numberOfBytes": "32",
        "value": "t_struct(UserInfo)953_storage"
      },
      "t_struct(UserInfo)953_storage": {
        "encoding": "inplace",
        "label": "struct BuniPool.UserInfo",
        "members": [
          {
            "astId": 950,
            "contract": "contracts/BuniPool.sol:BuniPool",
            "label": "amount",
            "offset": 0,
            "slot": "0",
            "type": "t_uint256"
          },
          {
            "astId": 952,
            "contract": "contracts/BuniPool.sol:BuniPool",
            "label": "rewardDebt",
            "offset": 0,
            "slot": "1",
            "type": "t_uint256"
          }
        ],
        "numberOfBytes": "64"
      },
      "t_uint256": {
        "encoding": "inplace",
        "label": "uint256",
        "numberOfBytes": "32"
      }
    }
  }
}